{
  "_format": "hh-sol-artifact-1",
  "contractName": "ETHDonation",
  "sourceName": "contracts/ETHDonation.sol",
  "abi": [
    {
      "inputs": [],
      "stateMutability": "nonpayable",
      "type": "constructor"
    },
    {
      "anonymous": false,
      "inputs": [
        {
          "indexed": true,
          "internalType": "address",
          "name": "donor",
          "type": "address"
        },
        {
          "indexed": false,
          "internalType": "uint256",
          "name": "amount",
          "type": "uint256"
        },
        {
          "indexed": false,
          "internalType": "string",
          "name": "message",
          "type": "string"
        }
      ],
      "name": "Donate",
      "type": "event"
    },
    {
      "anonymous": false,
      "inputs": [
        {
          "indexed": true,
          "internalType": "address",
          "name": "receiver",
          "type": "address"
        },
        {
          "indexed": false,
          "internalType": "uint256",
          "name": "amount",
          "type": "uint256"
        }
      ],
      "name": "Withdraw",
      "type": "event"
    },
    {
      "inputs": [
        {
          "internalType": "string",
          "name": "_message",
          "type": "string"
        }
      ],
      "name": "donate",
      "outputs": [],
      "stateMutability": "payable",
      "type": "function"
    },
    {
      "inputs": [
        {
          "internalType": "uint256",
          "name": "",
          "type": "uint256"
        }
      ],
      "name": "donorAddress",
      "outputs": [
        {
          "internalType": "address",
          "name": "",
          "type": "address"
        }
      ],
      "stateMutability": "view",
      "type": "function"
    },
    {
      "inputs": [
        {
          "internalType": "address",
          "name": "",
          "type": "address"
        }
      ],
      "name": "donors",
      "outputs": [
        {
          "internalType": "uint256",
          "name": "totalAmount",
          "type": "uint256"
        },
        {
          "internalType": "string",
          "name": "latestMessage",
          "type": "string"
        }
      ],
      "stateMutability": "view",
      "type": "function"
    },
    {
      "inputs": [],
      "name": "getContractBalance",
      "outputs": [
        {
          "internalType": "uint256",
          "name": "",
          "type": "uint256"
        }
      ],
      "stateMutability": "view",
      "type": "function"
    },
    {
      "inputs": [
        {
          "internalType": "address",
          "name": "_donor",
          "type": "address"
        }
      ],
      "name": "getDonor",
      "outputs": [
        {
          "internalType": "uint256",
          "name": "",
          "type": "uint256"
        },
        {
          "internalType": "string",
          "name": "",
          "type": "string"
        }
      ],
      "stateMutability": "view",
      "type": "function"
    },
    {
      "inputs": [
        {
          "internalType": "address",
          "name": "_donor",
          "type": "address"
        }
      ],
      "name": "getDonorHistory",
      "outputs": [
        {
          "components": [
            {
              "internalType": "uint256",
              "name": "amount",
              "type": "uint256"
            },
            {
              "internalType": "string",
              "name": "message",
              "type": "string"
            },
            {
              "internalType": "uint256",
              "name": "timestamp",
              "type": "uint256"
            }
          ],
          "internalType": "struct ETHDonation.Donation[]",
          "name": "",
          "type": "tuple[]"
        }
      ],
      "stateMutability": "view",
      "type": "function"
    },
    {
      "inputs": [],
      "name": "getTotalDonors",
      "outputs": [
        {
          "internalType": "uint256",
          "name": "",
          "type": "uint256"
        }
      ],
      "stateMutability": "view",
      "type": "function"
    },
    {
      "inputs": [],
      "name": "owner",
      "outputs": [
        {
          "internalType": "address",
          "name": "",
          "type": "address"
        }
      ],
      "stateMutability": "view",
      "type": "function"
    },
    {
      "inputs": [],
      "name": "totalAmount",
      "outputs": [
        {
          "internalType": "uint256",
          "name": "",
          "type": "uint256"
        }
      ],
      "stateMutability": "view",
      "type": "function"
    },
    {
      "inputs": [],
      "name": "withdraw",
      "outputs": [],
      "stateMutability": "nonpayable",
      "type": "function"
    }
  ],
  "bytecode": "0x608060405234801561001057600080fd5b50336000806101000a81548173ffffffffffffffffffffffffffffffffffffffff021916908373ffffffffffffffffffffffffffffffffffffffff16021790555061152e806100606000396000f3fe6080604052600436106100915760003560e01c80638da5cb5b116100595780638da5cb5b1461017d57806396c59043146101a8578063b5aebc80146101e6578063ca0cdea814610202578063e615a7121461024057610091565b8063162e2ab6146100965780631a39d8ef146100d35780633ccfd60b146100fe5780633e4cbf42146101155780636f9fb98a14610152575b600080fd5b3480156100a257600080fd5b506100bd60048036038101906100b89190610af0565b61026b565b6040516100ca9190610b5e565b60405180910390f35b3480156100df57600080fd5b506100e86102aa565b6040516100f59190610b88565b60405180910390f35b34801561010a57600080fd5b506101136102b0565b005b34801561012157600080fd5b5061013c60048036038101906101379190610bcf565b61045e565b6040516101499190610dad565b60405180910390f35b34801561015e57600080fd5b506101676105a5565b6040516101749190610b88565b60405180910390f35b34801561018957600080fd5b506101926105ad565b60405161019f9190610b5e565b60405180910390f35b3480156101b457600080fd5b506101cf60048036038101906101ca9190610bcf565b6105d1565b6040516101dd929190610e19565b60405180910390f35b61020060048036038101906101fb9190610eae565b6106ef565b005b34801561020e57600080fd5b5061022960048036038101906102249190610bcf565b6109f7565b604051610237929190610e19565b60405180910390f35b34801561024c57600080fd5b50610255610aa3565b6040516102629190610b88565b60405180910390f35b6003818154811061027b57600080fd5b906000526020600020016000915054906101000a900473ffffffffffffffffffffffffffffffffffffffff1681565b60015481565b60008054906101000a900473ffffffffffffffffffffffffffffffffffffffff1673ffffffffffffffffffffffffffffffffffffffff163373ffffffffffffffffffffffffffffffffffffffff161461033e576040517f08c379a000000000000000000000000000000000000000000000000000000000815260040161033590610f47565b60405180910390fd5b600047905060008111610386576040517f08c379a000000000000000000000000000000000000000000000000000000000815260040161037d90610fb3565b60405180910390fd5b60008054906101000a900473ffffffffffffffffffffffffffffffffffffffff1673ffffffffffffffffffffffffffffffffffffffff166108fc829081150290604051600060405180830381858888f193505050501580156103ec573d6000803e3d6000fd5b5060008054906101000a900473ffffffffffffffffffffffffffffffffffffffff1673ffffffffffffffffffffffffffffffffffffffff167f884edad9ce6fa2440d8a54cc123490eb96d2768479d49ff9c7366125a9424364826040516104539190610b88565b60405180910390a250565b6060600260008373ffffffffffffffffffffffffffffffffffffffff1673ffffffffffffffffffffffffffffffffffffffff168152602001908152602001600020600101805480602002602001604051908101604052809291908181526020016000905b8282101561059a5783829060005260206000209060030201604051806060016040529081600082015481526020016001820180546104ff90611002565b80601f016020809104026020016040519081016040528092919081815260200182805461052b90611002565b80156105785780601f1061054d57610100808354040283529160200191610578565b820191906000526020600020905b81548152906001019060200180831161055b57829003601f168201915b50505050508152602001600282015481525050815260200190600101906104c2565b505050509050919050565b600047905090565b60008054906101000a900473ffffffffffffffffffffffffffffffffffffffff1681565b60006060600260008473ffffffffffffffffffffffffffffffffffffffff1673ffffffffffffffffffffffffffffffffffffffff16815260200190815260200160002060000154600260008573ffffffffffffffffffffffffffffffffffffffff1673ffffffffffffffffffffffffffffffffffffffff16815260200190815260200160002060020180805461066690611002565b80601f016020809104026020016040519081016040528092919081815260200182805461069290611002565b80156106df5780601f106106b4576101008083540402835291602001916106df565b820191906000526020600020905b8154815290600101906020018083116106c257829003601f168201915b5050505050905091509150915091565b662386f26fc10000341015610739576040517f08c379a00000000000000000000000000000000000000000000000000000000081526004016107309061107f565b60405180910390fd5b6000600260003373ffffffffffffffffffffffffffffffffffffffff1673ffffffffffffffffffffffffffffffffffffffff16815260200190815260200160002060000154036107e7576003339080600181540180825580915050600190039060005260206000200160009091909190916101000a81548173ffffffffffffffffffffffffffffffffffffffff021916908373ffffffffffffffffffffffffffffffffffffffff1602179055505b600260003373ffffffffffffffffffffffffffffffffffffffff1673ffffffffffffffffffffffffffffffffffffffff168152602001908152602001600020600101604051806060016040528034815260200184848080601f016020809104026020016040519081016040528093929190818152602001838380828437600081840152601f19601f8201169050808301925050505050505081526020014281525090806001815401808255809150506001900390600052602060002090600302016000909190919091506000820151816000015560208201518160010190816108d0919061127a565b5060408201518160020155505034600260003373ffffffffffffffffffffffffffffffffffffffff1673ffffffffffffffffffffffffffffffffffffffff168152602001908152602001600020600001600082825461092f919061137b565b925050819055508181600260003373ffffffffffffffffffffffffffffffffffffffff1673ffffffffffffffffffffffffffffffffffffffff16815260200190815260200160002060020191826109879291906113ba565b50346001600082825461099a919061137b565b925050819055503373ffffffffffffffffffffffffffffffffffffffff167f4c4cf652c6f14d29f3d8b821ba41309afba5bf3a6f10b64d61665a235049711d3484846040516109eb939291906114c6565b60405180910390a25050565b6002602052806000526040600020600091509050806000015490806002018054610a2090611002565b80601f0160208091040260200160405190810160405280929190818152602001828054610a4c90611002565b8015610a995780601f10610a6e57610100808354040283529160200191610a99565b820191906000526020600020905b815481529060010190602001808311610a7c57829003601f168201915b5050505050905082565b6000600380549050905090565b600080fd5b600080fd5b6000819050919050565b610acd81610aba565b8114610ad857600080fd5b50565b600081359050610aea81610ac4565b92915050565b600060208284031215610b0657610b05610ab0565b5b6000610b1484828501610adb565b91505092915050565b600073ffffffffffffffffffffffffffffffffffffffff82169050919050565b6000610b4882610b1d565b9050919050565b610b5881610b3d565b82525050565b6000602082019050610b736000830184610b4f565b92915050565b610b8281610aba565b82525050565b6000602082019050610b9d6000830184610b79565b92915050565b610bac81610b3d565b8114610bb757600080fd5b50565b600081359050610bc981610ba3565b92915050565b600060208284031215610be557610be4610ab0565b5b6000610bf384828501610bba565b91505092915050565b600081519050919050565b600082825260208201905092915050565b6000819050602082019050919050565b610c3181610aba565b82525050565b600081519050919050565b600082825260208201905092915050565b60005b83811015610c71578082015181840152602081019050610c56565b60008484015250505050565b6000601f19601f8301169050919050565b6000610c9982610c37565b610ca38185610c42565b9350610cb3818560208601610c53565b610cbc81610c7d565b840191505092915050565b6000606083016000830151610cdf6000860182610c28565b5060208301518482036020860152610cf78282610c8e565b9150506040830151610d0c6040860182610c28565b508091505092915050565b6000610d238383610cc7565b905092915050565b6000602082019050919050565b6000610d4382610bfc565b610d4d8185610c07565b935083602082028501610d5f85610c18565b8060005b85811015610d9b5784840389528151610d7c8582610d17565b9450610d8783610d2b565b925060208a01995050600181019050610d63565b50829750879550505050505092915050565b60006020820190508181036000830152610dc78184610d38565b905092915050565b600082825260208201905092915050565b6000610deb82610c37565b610df58185610dcf565b9350610e05818560208601610c53565b610e0e81610c7d565b840191505092915050565b6000604082019050610e2e6000830185610b79565b8181036020830152610e408184610de0565b90509392505050565b600080fd5b600080fd5b600080fd5b60008083601f840112610e6e57610e6d610e49565b5b8235905067ffffffffffffffff811115610e8b57610e8a610e4e565b5b602083019150836001820283011115610ea757610ea6610e53565b5b9250929050565b60008060208385031215610ec557610ec4610ab0565b5b600083013567ffffffffffffffff811115610ee357610ee2610ab5565b5b610eef85828601610e58565b92509250509250929050565b7f4f6e6c79206f776e65722063616e207769746864726177000000000000000000600082015250565b6000610f31601783610dcf565b9150610f3c82610efb565b602082019050919050565b60006020820190508181036000830152610f6081610f24565b9050919050565b7f4e6f2066756e647320746f207769746864726177000000000000000000000000600082015250565b6000610f9d601483610dcf565b9150610fa882610f67565b602082019050919050565b60006020820190508181036000830152610fcc81610f90565b9050919050565b7f4e487b7100000000000000000000000000000000000000000000000000000000600052602260045260246000fd5b6000600282049050600182168061101a57607f821691505b60208210810361102d5761102c610fd3565b5b50919050565b7f446f6e6174696f6e206d7573742062652067726561746572207468616e203000600082015250565b6000611069601f83610dcf565b915061107482611033565b602082019050919050565b600060208201905081810360008301526110988161105c565b9050919050565b7f4e487b7100000000000000000000000000000000000000000000000000000000600052604160045260246000fd5b60008190508160005260206000209050919050565b60006020601f8301049050919050565b600082821b905092915050565b6000600883026111307fffffffffffffffffffffffffffffffffffffffffffffffffffffffffffffffff826110f3565b61113a86836110f3565b95508019841693508086168417925050509392505050565b6000819050919050565b600061117761117261116d84610aba565b611152565b610aba565b9050919050565b6000819050919050565b6111918361115c565b6111a561119d8261117e565b848454611100565b825550505050565b600090565b6111ba6111ad565b6111c5818484611188565b505050565b5b818110156111e9576111de6000826111b2565b6001810190506111cb565b5050565b601f82111561122e576111ff816110ce565b611208846110e3565b81016020851015611217578190505b61122b611223856110e3565b8301826111ca565b50505b505050565b600082821c905092915050565b600061125160001984600802611233565b1980831691505092915050565b600061126a8383611240565b9150826002028217905092915050565b61128382610c37565b67ffffffffffffffff81111561129c5761129b61109f565b5b6112a68254611002565b6112b18282856111ed565b600060209050601f8311600181146112e457600084156112d2578287015190505b6112dc858261125e565b865550611344565b601f1984166112f2866110ce565b60005b8281101561131a578489015182556001820191506020850194506020810190506112f5565b868310156113375784890151611333601f891682611240565b8355505b6001600288020188555050505b505050505050565b7f4e487b7100000000000000000000000000000000000000000000000000000000600052601160045260246000fd5b600061138682610aba565b915061139183610aba565b92508282019050808211156113a9576113a861134c565b5b92915050565b600082905092915050565b6113c483836113af565b67ffffffffffffffff8111156113dd576113dc61109f565b5b6113e78254611002565b6113f28282856111ed565b6000601f831160018114611421576000841561140f578287013590505b611419858261125e565b865550611481565b601f19841661142f866110ce565b60005b8281101561145757848901358255600182019150602085019450602081019050611432565b868310156114745784890135611470601f891682611240565b8355505b6001600288020188555050505b50505050505050565b82818337600083830152505050565b60006114a58385610dcf565b93506114b283858461148a565b6114bb83610c7d565b840190509392505050565b60006040820190506114db6000830186610b79565b81810360208301526114ee818486611499565b905094935050505056fea2646970667358221220123df58114accbb13dc4261b6b6633cdb39aa5b712a3da9011272cb56e6a8f2264736f6c63430008140033",
  "linkReferences": {},
  "deployedLinkReferences": {}
}